{
  "_format": "hh-sol-artifact-1",
  "contractName": "SuperHonk",
  "sourceName": "contracts/ISuperHonk.sol",
  "abi": [
    {
      "anonymous": false,
      "inputs": [
        {
          "indexed": true,
          "internalType": "address",
          "name": "source",
          "type": "address"
        }
      ],
      "name": "LoudSound",
      "type": "event"
    },
    {
      "inputs": [],
      "name": "count",
      "outputs": [
        {
          "internalType": "uint256",
          "name": "",
          "type": "uint256"
        }
      ],
      "stateMutability": "view",
      "type": "function"
    },
    {
      "inputs": [],
      "name": "honk",
      "outputs": [],
      "stateMutability": "nonpayable",
      "type": "function"
    }
  ],
  "bytecode": "0x608060405234801561001057600080fd5b506101b6806100206000396000f3fe608060405234801561001057600080fd5b50600436106100365760003560e01c806306661abd1461003b57806314274baa14610059575b600080fd5b610043610063565b60405161005091906100e0565b60405180910390f35b610061610069565b005b60005481565b600160008082825461007b919061012a565b925050819055503373ffffffffffffffffffffffffffffffffffffffff167f99853bc2ae2eab6cfcf41e8d26548f62ad0f8dfb11c576c861f85796efea5a8a60405160405180910390a2565b6000819050919050565b6100da816100c7565b82525050565b60006020820190506100f560008301846100d1565b92915050565b7f4e487b7100000000000000000000000000000000000000000000000000000000600052601160045260246000fd5b6000610135826100c7565b9150610140836100c7565b9250827fffffffffffffffffffffffffffffffffffffffffffffffffffffffffffffffff03821115610175576101746100fb565b5b82820190509291505056fea264697066735822122000044dd9e2095bba780a8bf88504f1ff23e33637b299565cb05988b8857d8c6f64736f6c63430008090033",
  "linkReferences": {},
  "deployedLinkReferences": {}
}