{
  "_format": "hh-sol-artifact-1",
  "contractName": "Cars",
  "sourceName": "contracts/Cars.sol",
  "abi": [
    {
      "inputs": [],
      "stateMutability": "nonpayable",
      "type": "constructor"
    },
    {
      "anonymous": false,
      "inputs": [
        {
          "indexed": true,
          "internalType": "uint256",
          "name": "carId",
          "type": "uint256"
        }
      ],
      "name": "CarHonk",
      "type": "event"
    },
    {
      "inputs": [
        {
          "internalType": "bytes3",
          "name": "colour",
          "type": "bytes3"
        },
        {
          "internalType": "uint8",
          "name": "doors",
          "type": "uint8"
        }
      ],
      "name": "addCar",
      "outputs": [
        {
          "internalType": "uint256",
          "name": "carId",
          "type": "uint256"
        }
      ],
      "stateMutability": "payable",
      "type": "function"
    },
    {
      "inputs": [
        {
          "internalType": "uint256",
          "name": "",
          "type": "uint256"
        }
      ],
      "name": "cars",
      "outputs": [
        {
          "internalType": "bytes3",
          "name": "colour",
          "type": "bytes3"
        },
        {
          "internalType": "uint8",
          "name": "doors",
          "type": "uint8"
        },
        {
          "internalType": "enum Cars.CarStatus",
          "name": "status",
          "type": "uint8"
        },
        {
          "internalType": "address",
          "name": "owner",
          "type": "address"
        }
      ],
      "stateMutability": "view",
      "type": "function"
    },
    {
      "inputs": [
        {
          "internalType": "uint256",
          "name": "carId",
          "type": "uint256"
        },
        {
          "internalType": "bool",
          "name": "isLoud",
          "type": "bool"
        }
      ],
      "name": "honk",
      "outputs": [],
      "stateMutability": "nonpayable",
      "type": "function"
    },
    {
      "inputs": [],
      "name": "numCars",
      "outputs": [
        {
          "internalType": "uint256",
          "name": "",
          "type": "uint256"
        }
      ],
      "stateMutability": "view",
      "type": "function"
    },
    {
      "inputs": [
        {
          "internalType": "uint256",
          "name": "carId",
          "type": "uint256"
        },
        {
          "internalType": "enum Cars.CarStatus",
          "name": "newStatus",
          "type": "uint8"
        }
      ],
      "name": "statusChange",
      "outputs": [],
      "stateMutability": "nonpayable",
      "type": "function"
    }
  ],
  "bytecode": "0x6080604052600060015534801561001557600080fd5b50336000806101000a81548173ffffffffffffffffffffffffffffffffffffffff021916908373ffffffffffffffffffffffffffffffffffffffff160217905550610b93806100656000396000f3fe60806040526004361061004a5760003560e01c806317f1c6e31461004f5780632419e9c8146100785780638b6fd1fa146100a3578063dc6b1c9d146100cc578063f7746e36146100fc575b600080fd5b34801561005b57600080fd5b5061007660048036038101906100719190610695565b61013c565b005b34801561008457600080fd5b5061008d6102ae565b60405161009a91906106e4565b60405180910390f35b3480156100af57600080fd5b506100ca60048036038101906100c59190610737565b6102b4565b005b6100e660048036038101906100e19190610808565b610412565b6040516100f391906106e4565b60405180910390f35b34801561010857600080fd5b50610123600480360381019061011e9190610848565b6105be565b604051610133949392919061094b565b60405180910390f35b813373ffffffffffffffffffffffffffffffffffffffff166002600083815260200190815260200160002060000160059054906101000a900473ffffffffffffffffffffffffffffffffffffffff1673ffffffffffffffffffffffffffffffffffffffff16146101e1576040517f08c379a00000000000000000000000000000000000000000000000000000000081526004016101d8906109ed565b60405180910390fd5b8160018111156101f4576101f3610893565b5b6002600085815260200190815260200160002060000160049054906101000a900460ff16600181111561022a57610229610893565b5b141561026b576040517f08c379a000000000000000000000000000000000000000000000000000000000815260040161026290610a59565b60405180910390fd5b816002600085815260200190815260200160002060000160046101000a81548160ff021916908360018111156102a4576102a3610893565b5b0217905550505050565b60015481565b813373ffffffffffffffffffffffffffffffffffffffff166002600083815260200190815260200160002060000160059054906101000a900473ffffffffffffffffffffffffffffffffffffffff1673ffffffffffffffffffffffffffffffffffffffff1614610359576040517f08c379a0000000000000000000000000000000000000000000000000000000008152600401610350906109ed565b60405180910390fd5b827f76b42385eaa2e7c91181807a1e593a451d802196775addd304d81168bd84fff860405160405180910390a2811561040d5760008054906101000a900473ffffffffffffffffffffffffffffffffffffffff1673ffffffffffffffffffffffffffffffffffffffff166314274baa6040518163ffffffff1660e01b8152600401600060405180830381600087803b1580156103f457600080fd5b505af1158015610408573d6000803e3d6000fd5b505050505b505050565b600067016345785d8a0000341161045e576040517f08c379a000000000000000000000000000000000000000000000000000000000815260040161045590610ac5565b60405180910390fd5b60016000815461046d90610b14565b919050819055905060006040518060800160405280857cffffffffffffffffffffffffffffffffffffffffffffffffffffffffff191681526020018460ff1681526020016001808111156104c4576104c3610893565b5b81526020013373ffffffffffffffffffffffffffffffffffffffff168152509050806002600084815260200190815260200160002060008201518160000160006101000a81548162ffffff021916908360e81c021790555060208201518160000160036101000a81548160ff021916908360ff16021790555060408201518160000160046101000a81548160ff0219169083600181111561056857610567610893565b5b021790555060608201518160000160056101000a81548173ffffffffffffffffffffffffffffffffffffffff021916908373ffffffffffffffffffffffffffffffffffffffff1602179055509050505092915050565b60026020528060005260406000206000915090508060000160009054906101000a900460e81b908060000160039054906101000a900460ff16908060000160049054906101000a900460ff16908060000160059054906101000a900473ffffffffffffffffffffffffffffffffffffffff16905084565b600080fd5b6000819050919050565b61064d8161063a565b811461065857600080fd5b50565b60008135905061066a81610644565b92915050565b6002811061067d57600080fd5b50565b60008135905061068f81610670565b92915050565b600080604083850312156106ac576106ab610635565b5b60006106ba8582860161065b565b92505060206106cb85828601610680565b9150509250929050565b6106de8161063a565b82525050565b60006020820190506106f960008301846106d5565b92915050565b60008115159050919050565b610714816106ff565b811461071f57600080fd5b50565b6000813590506107318161070b565b92915050565b6000806040838503121561074e5761074d610635565b5b600061075c8582860161065b565b925050602061076d85828601610722565b9150509250929050565b60007fffffff000000000000000000000000000000000000000000000000000000000082169050919050565b6107ac81610777565b81146107b757600080fd5b50565b6000813590506107c9816107a3565b92915050565b600060ff82169050919050565b6107e5816107cf565b81146107f057600080fd5b50565b600081359050610802816107dc565b92915050565b6000806040838503121561081f5761081e610635565b5b600061082d858286016107ba565b925050602061083e858286016107f3565b9150509250929050565b60006020828403121561085e5761085d610635565b5b600061086c8482850161065b565b91505092915050565b61087e81610777565b82525050565b61088d816107cf565b82525050565b7f4e487b7100000000000000000000000000000000000000000000000000000000600052602160045260246000fd5b600281106108d3576108d2610893565b5b50565b60008190506108e4826108c2565b919050565b60006108f4826108d6565b9050919050565b610904816108e9565b82525050565b600073ffffffffffffffffffffffffffffffffffffffff82169050919050565b60006109358261090a565b9050919050565b6109458161092a565b82525050565b60006080820190506109606000830187610875565b61096d6020830186610884565b61097a60408301856108fb565b610987606083018461093c565b95945050505050565b600082825260208201905092915050565b7f6f6e6c79206f776e657200000000000000000000000000000000000000000000600082015250565b60006109d7600a83610990565b91506109e2826109a1565b602082019050919050565b60006020820190508181036000830152610a06816109ca565b9050919050565b7f6e6f206368616e67650000000000000000000000000000000000000000000000600082015250565b6000610a43600983610990565b9150610a4e82610a0d565b602082019050919050565b60006020820190508181036000830152610a7281610a36565b9050919050565b7f7265717569726573207061796d656e7400000000000000000000000000000000600082015250565b6000610aaf601083610990565b9150610aba82610a79565b602082019050919050565b60006020820190508181036000830152610ade81610aa2565b9050919050565b7f4e487b7100000000000000000000000000000000000000000000000000000000600052601160045260246000fd5b6000610b1f8261063a565b91507fffffffffffffffffffffffffffffffffffffffffffffffffffffffffffffffff821415610b5257610b51610ae5565b5b60018201905091905056fea26469706673582212205294bf674a3913d03af825ce01c497c6a12e9b3291f0b397a9a67a9597a5dc9e64736f6c63430008090033",
  "linkReferences": {},
  "deployedLinkReferences": {}
}